{
  "contractName": "ERC777TokensRecipientMock",
  "abi": [
    {
      "inputs": [
        {
          "internalType": "address",
          "name": "token",
          "type": "address"
        }
      ],
      "stateMutability": "nonpayable",
      "type": "constructor"
    },
    {
      "anonymous": false,
      "inputs": [
        {
          "indexed": false,
          "internalType": "address",
          "name": "operator",
          "type": "address"
        },
        {
          "indexed": false,
          "internalType": "address",
          "name": "from",
          "type": "address"
        },
        {
          "indexed": false,
          "internalType": "address",
          "name": "to",
          "type": "address"
        },
        {
          "indexed": false,
          "internalType": "uint256",
          "name": "amount",
          "type": "uint256"
        },
        {
          "indexed": false,
          "internalType": "bytes",
          "name": "userData",
          "type": "bytes"
        },
        {
          "indexed": false,
          "internalType": "bytes",
          "name": "operatorData",
          "type": "bytes"
        }
      ],
      "name": "SendData",
      "type": "event"
    },
    {
      "inputs": [
        {
          "internalType": "address",
          "name": "operator",
          "type": "address"
        },
        {
          "internalType": "address",
          "name": "from",
          "type": "address"
        },
        {
          "internalType": "address",
          "name": "to",
          "type": "address"
        },
        {
          "internalType": "uint256",
          "name": "amount",
          "type": "uint256"
        },
        {
          "internalType": "bytes",
          "name": "userData",
          "type": "bytes"
        },
        {
          "internalType": "bytes",
          "name": "operatorData",
          "type": "bytes"
        }
      ],
      "name": "tokensReceived",
      "outputs": [],
      "stateMutability": "nonpayable",
      "type": "function"
    }
  ],
  "bytecode": "0x6080604052731820a4b7618bde71dce8cdc73aab6c95905fad246000806101000a81548173ffffffffffffffffffffffffffffffffffffffff021916908373ffffffffffffffffffffffffffffffffffffffff16021790555034801561006457600080fd5b506040516106d23803806106d283398181016040528101906100869190610191565b80600160006101000a81548173ffffffffffffffffffffffffffffffffffffffff021916908373ffffffffffffffffffffffffffffffffffffffff16021790555060008054906101000a900473ffffffffffffffffffffffffffffffffffffffff1673ffffffffffffffffffffffffffffffffffffffff166329965a1d307fb281fc8c12954d22544db45de3159a39272895b169a852b314f9cc762e44c53b306040518463ffffffff1660e01b8152600401610144939291906101d8565b600060405180830381600087803b15801561015e57600080fd5b505af1158015610172573d6000803e3d6000fd5b5050505050610262565b60008151905061018b8161024b565b92915050565b6000602082840312156101a357600080fd5b60006101b18482850161017c565b91505092915050565b6101c38161020f565b82525050565b6101d281610221565b82525050565b60006060820190506101ed60008301866101ba565b6101fa60208301856101c9565b61020760408301846101ba565b949350505050565b600061021a8261022b565b9050919050565b6000819050919050565b600073ffffffffffffffffffffffffffffffffffffffff82169050919050565b6102548161020f565b811461025f57600080fd5b50565b610461806102716000396000f3fe608060405234801561001057600080fd5b506004361061002a5760003560e01c806223de291461002f575b600080fd5b6100496004803603810190610044919061019e565b61004b565b005b600160009054906101000a900473ffffffffffffffffffffffffffffffffffffffff1673ffffffffffffffffffffffffffffffffffffffff163373ffffffffffffffffffffffffffffffffffffffff16146100db576040517f08c379a00000000000000000000000000000000000000000000000000000000081526004016100d29061035f565b60405180910390fd5b7f46372b34754af166b806f86913e29a87243e770f1ffc266fcc4e43e1c0ceea8a88888888888888886040516101189897969594939291906102ec565b60405180910390a15050505050505050565b600081359050610139816103fd565b92915050565b60008083601f84011261015157600080fd5b8235905067ffffffffffffffff81111561016a57600080fd5b60208301915083600182028301111561018257600080fd5b9250929050565b60008135905061019881610414565b92915050565b60008060008060008060008060c0898b0312156101ba57600080fd5b60006101c88b828c0161012a565b98505060206101d98b828c0161012a565b97505060406101ea8b828c0161012a565b96505060606101fb8b828c01610189565b955050608089013567ffffffffffffffff81111561021857600080fd5b6102248b828c0161013f565b945094505060a089013567ffffffffffffffff81111561024357600080fd5b61024f8b828c0161013f565b92509250509295985092959890939650565b61026a816103a1565b82525050565b600061027c838561037f565b93506102898385846103dd565b610292836103ec565b840190509392505050565b60006102aa600d83610390565b91507f496e76616c696420746f6b656e000000000000000000000000000000000000006000830152602082019050919050565b6102e6816103d3565b82525050565b600060c082019050610301600083018b610261565b61030e602083018a610261565b61031b6040830189610261565b61032860608301886102dd565b818103608083015261033b818688610270565b905081810360a0830152610350818486610270565b90509998505050505050505050565b600060208201905081810360008301526103788161029d565b9050919050565b600082825260208201905092915050565b600082825260208201905092915050565b60006103ac826103b3565b9050919050565b600073ffffffffffffffffffffffffffffffffffffffff82169050919050565b6000819050919050565b82818337600083830152505050565b6000601f19601f8301169050919050565b610406816103a1565b811461041157600080fd5b50565b61041d816103d3565b811461042857600080fd5b5056fea26469706673582212201180f2b5bdf58aec1ee2ab2e93d17298f51a81a0f46589bb02c1366e10ae4aef64736f6c63430008000033",
  "immutableReferences": {},
  "source": "pragma solidity ^0.8.0;\n\nimport \"@openzeppelin/contracts/token/ERC777/IERC777.sol\";\nimport \"@openzeppelin/contracts/utils/introspection/IERC1820Registry.sol\";\nimport \"@openzeppelin/contracts/token/ERC777/IERC777Recipient.sol\";\n\n/**\n * @title Simple777Recipient\n * @dev Very simple ERC777 Recipient\n */\ncontract ERC777TokensRecipientMock is IERC777Recipient {\n    IERC1820Registry private _erc1820 =\n        IERC1820Registry(0x1820a4B7618BdE71Dce8cdc73aAB6C95905faD24);\n    bytes32 private constant TOKENS_RECIPIENT_INTERFACE_HASH =\n        keccak256(\"ERC777TokensRecipient\");\n\n    IERC777 private _token;\n\n    event SendData(\n        address operator,\n        address from,\n        address to,\n        uint256 amount,\n        bytes userData,\n        bytes operatorData\n    );\n\n    constructor(address token) public {\n        _token = IERC777(token);\n\n        _erc1820.setInterfaceImplementer(\n            address(this),\n            TOKENS_RECIPIENT_INTERFACE_HASH,\n            address(this)\n        );\n    }\n\n    function tokensReceived(\n        address operator,\n        address from,\n        address to,\n        uint256 amount,\n        bytes calldata userData,\n        bytes calldata operatorData\n    ) external override {\n        require(msg.sender == address(_token), \"Invalid token\");\n\n        // do stuff\n        emit SendData(operator, from, to, amount, userData, operatorData);\n    }\n}\n",
  "sourcePath": "/Users/Alex./Desktop/Beginning/ERC777/contracts/ERC777TokensRecipientMock.sol",
  "compiler": {
    "name": "solc",
    "version": "0.8.0+commit.c7dfd78e.Emscripten.clang"
  },
  "schemaVersion": "3.4.1",
  "updatedAt": "2021-05-10T15:35:38.864Z",
  "networkType": "ethereum",
  "devdoc": {
    "details": "Very simple ERC777 Recipient",
    "kind": "dev",
    "methods": {
      "tokensReceived(address,address,address,uint256,bytes,bytes)": {
        "details": "Called by an {IERC777} token contract whenever tokens are being moved or created into a registered account (`to`). The type of operation is conveyed by `from` being the zero address or not. This call occurs _after_ the token contract's state is updated, so {IERC777-balanceOf}, etc., can be used to query the post-operation state. This function may revert to prevent the operation from being executed."
      }
    },
    "title": "Simple777Recipient",
    "version": 1
  },
  "userdoc": {
    "kind": "user",
    "methods": {},
    "version": 1
  }
}